:100000000C9434000C9451000C9451000C94510049
:100010000C9451000C9451000C9451000C9451001C
:100020000C9451000C9451000C9451000C9451000C
:100030000C9451000C9451000C94D1010C9451007B
:100040000C9451000C9451000C9451000C945100EC
:100050000C9451000C9451000C9451000C945100DC
:100060000C9451000C94510011241FBECFEFD8E026
:10007000DEBFCDBF13E0A0E0B1E0EEECF3E102C0E3
:1000800005900D92A030B107D9F724E0A0E0B3E0CD
:1000900001C01D92A333B207E1F70E949D070C94A3
:1000A000E5090C9400009C018F3F910509F044F490
:1000B000220F331FF901E050FF4F80819181089595
:1000C000220F331FF901E050F140F7CFAF92BF92FA
:1000D000CF92DF92EF92FF920F931F93CF93DF9314
:1000E00000D000D00F92CDB7DEB7FC0183FF48C02F
:1000F0002D83C801D90189839A83AB83BC83CF0147
:100100008C709927892B09F440C0CF018F709927F3
:100110008C30910541F00E9731F09E2D8F2D4C2D96
:100120005D2D692F782FE0FF09C089819A81AB810D
:10013000BC81B05889839A83AB83BC83E1FD70583E
:100140009A01AB0169817A818B819C810E94A80709
:1001500069837A838B839C8369817A818B819C817B
:100160000F900F900F900F900F90DF91CF911F91F4
:100170000F91FF90EF90DF90CF90BF90AF900895D8
:1001800049835A836B837C83BACF922F832F402F6E
:10019000512FC7CF4F925F926F927F928F929F9213
:1001A000AF92BF92CF92DF92EF92FF920F931F9385
:1001B000CF93DF9300D000D000D0CDB7DEB74B0196
:1001C0005C0169014E835D8320E030E0A901E98292
:1001D000FA820B831C8369817A818B819C810E94C6
:1001E000140820E030E040E85FE387FF74C06981D5
:1001F0007A818B819C810E94A8077B018C012BEA6C
:100200003AEA4AE25EE3E982FA820B831C8369815F
:100210007A818B819C810E94140887FF74C024011D
:1002200035019401A5019E818D81C982DA829B836B
:100230008C8369817A818B819C810E94A70720E051
:1002400030E040EC50E469837A838B839C8369813E
:100250007A818B819C810E9478099701A80169832A
:100260007A838B839C8369817A818B819C810E94B4
:100270007809242D352D462D572D69837A838B835C
:100280009C8369817A818B819C810E94A8076B0184
:100290008E839D839E818D81C982DA829B838C832C
:1002A00069817A818B819C8126960FB6F894DEBF96
:1002B0000FBECDBFDF91CF911F910F91FF90EF90B7
:1002C000DF90CF90BF90AF909F908F907F906F9076
:1002D0005F904F900895E982FA820B831C836981B5
:1002E0007A818B819C810E94730918160CF087CF4C
:1002F00020E030E040E85FE369817A818B819C8176
:100300000E94A7077ACF20E030E040E05FE3E98277
:10031000FA820B831C8369817A818B819C810E9484
:10032000140887FDB7CF2BEA3AEA4AE25FE3698116
:100330007A818B819C810E94140887FF2EC0240142
:1003400035019401A5019E818D81C982DA829B834A
:100350008C8369817A818B819C810E94A7076B01C4
:100360008E839D839701A8016BEA7AEA8AE29FE374
:100370000E94A7079B01AC01C982DA828E818B8320
:100380008D818C8369817A818B819C810E9478091F
:1003900020E030E040EC50E462CF6401AE82BD82E8
:1003A00079CF1F920F920FB60F9211242F923F9286
:1003B0004F925F926F927F928F929F92AF92BF9275
:1003C000CF92DF92EF92FF920F931F932F933F9361
:1003D0004F935F936F937F938F939F93AF93BF934D
:1003E000EF93FF93CF93DF93CDB7DEB7C454D1091A
:1003F000DEBFCDBF80912F0490913004A0913104D5
:10040000B091320489A79AA7ABA7BCA7BC01CD01C4
:100410000E948B08462F572FDA01BB27BE8BAD8B6E
:10042000CA01550FAA0BBB0B8D839E83AF83B88780
:10043000BC01CD010E94C3089B01AC0169A57AA54E
:100440008BA59CA50E94A707962E872E782E692E35
:1004500020E030E040EC50E46D837E838F8398870A
:100460006D817E818F8198850E94780920E030E03F
:1004700040E751E46D837E838F8398876D817E8111
:100480008F8198850E94A707292D382D472D562D3D
:100490006D837E838F8398876D817E818F81988520
:1004A0000E94780920E030E040E251E46D837E83D1
:1004B0008F8398876D817E818F8198850E94A807A0
:1004C0008B0189879983292D382D472D562D9D82A3
:1004D0008E827F8268866D817E818F8198850E9461
:1004E0007809292D382D472D562D6D837E838F83D6
:1004F00098876D817E818F8198850E9478099B0104
:10050000AC010D831E8399859F83A981A8876D8186
:100510007E818F8198850E9478096EAF7FAF21968A
:100520008FAF219722969FAF229720E030E040E8DE
:100530005FE39D828E827F8268866D817E818F815E
:1005400098850E94A7076B8F7C8F8D8F9E8F2EE0E2
:1005500031E0388F2F8B1A8E198E998D892F90E06C
:10056000B0E0A0E08D839E83AF83B887BC01CD014E
:100570000E94C10820E030E040E251E46D837E83B8
:100580008F8398876D817E818F8198850E9419085D
:100590007B018C016D83FE828F8318876D817E8144
:1005A0008F8198850E948B08DB01BB27BA83A983C2
:1005B000CB01770FAA0BBB0B8D839E83AF83B887CC
:1005C000BC01CD010E94C3089B01AC01ED82FE82FB
:1005D0000F8318876D817E818F8198850E94A70780
:1005E0002B011C0120E030E040EC50E46D835E8282
:1005F0008F8338866D817E818F8198850E947809EE
:1006000020E030E040E751E46D837E838F8398875C
:100610006D817E818F8198850E94A7079201A1013B
:100620006D837E838F8398876D817E818F8198858E
:100630000E94780920E030E040E251E46D837E833F
:100640008F8398876D817E818F8198850E94A8070E
:100650007B018C019201A1014D825E822F8238863E
:100660006D817E818F8198850E9478099201A10118
:100670006D837E838F8398876D817E818F8198853E
:100680000E9478099B01AC01ED82FE820F831887DE
:100690006D817E818F8198850E9478096BA37CA3F0
:1006A0008DA39EA389819A810E9453008DA79EA746
:1006B00089819A8101960E9453008FA798AB20E010
:1006C00030E040E85FE34D825E822F8238866D81A4
:1006D0007E818F8198850E94A7076F8F78A389A359
:1006E0009AA3A7E3B2E02F89388DA21BB30BBAAB54
:1006F000A9AB3CAB2BAB1D829D81892F90E0B0E074
:10070000A0E089839A83AB83BC83BC01CD010E94A6
:10071000C10820E030E040E251E469837A838B83B2
:100720009C8369817A818B819C810E9419088B014D
:100730008A87998769831A838B839C8369817A81ED
:100740008B819C810E948B087B01FF24CB01770F5A
:10075000AA0BBB0B89839A83AB83BC83BC01CD01FD
:100760000E94C3089B01AC0109831A839A859B836D
:10077000A985AC8369817A818B819C810E94A707BE
:100780005B0125968FAF259724969FAF249720E095
:1007900030E040EC50E46983BA828B839C836981AA
:1007A0007A818B819C810E94780920E030E040E7CB
:1007B00051E469837A838B839C8369817A818B81FD
:1007C0009C810E94A707950125964FAD25972496F9
:1007D0005FAD249769837A838B839C8369817A8157
:1007E0008B819C810E94780920E030E040E251E456
:1007F00069837A838B839C8369817A818B819C81D5
:100800000E94A8076B018C01950125964FAD259795
:1008100024965FAD2497A982BA822596BFAD25970D
:10082000BB8324968FAD24978C8369817A818B81D9
:100830009C810E947809950125964FAD25972496B5
:100840005FAD249769837A838B839C8369817A81E6
:100850008B819C810E9478099B01AC01C982DA825C
:100860000B831C8369817A818B819C810E9478092A
:100870006AAF7BAF8CAF9DAF0DA51EA50E0D1F1DE2
:10088000C8010E945300AD89BE89A80FB91FB8A73F
:10089000AFA3C80101960E9453002D893E89280FFD
:1008A000391F388B2F878FA598A9E80EF91EC7012D
:1008B0000E945300AD89BE89A80FB91FB9AFA8AF78
:1008C000C70101960E9453002D893E89280F391FC8
:1008D0003A8B298B20E030E040E85FE3A982BA82BE
:1008E00025968FAD25978B8324969FAD24979C8367
:1008F00069817A818B819C810E94A70769877A87A9
:100900008B879C8789899A8901960E945300CB8C9A
:10091000DC8CED8CFE8C09851A852B853C854F8DF2
:1009200058A169A17AA10E9466006D877E878B8B92
:100930009C8B8F85988901960E945300CB8CDC8C10
:10094000ED8CFE8C09851A852B853C85A201B101B1
:100950000E9466007B018C019B01AC01AD85A983DF
:10096000BE85BA838B898B839C899C8369817A81BC
:100970008B819C810E94A7072BA13CA14DA15EA168
:1009800069837A838B839C8369817A818B819C8143
:100990000E9478099701A80169837A838B839C83DD
:1009A00069817A818B819C810E94A8076DAB7EABA7
:1009B0008FAB23969FAF239788AD99AD01960E9488
:1009C0005300CB8CDC8CED8CFE8C850125962FADF5
:1009D000259724963FAD24974F8D58A169A17AA100
:1009E0000E9466006D877E878B8B9C8B8FA198A55C
:1009F00001960E945300CB8CDC8CED8CFE8C2596EE
:100A00002FAD259724963FAD2497A201B1010E94F6
:100A100066007B018C019B01AC01AD85A983BE857D
:100A2000BA838B898B839C899C8369817A818B8132
:100A30009C810E94A7072BA13CA14DA15EA16983C7
:100A40007A838B839C8369817A818B819C810E94CC
:100A500078099701A80169837A838B839C836981D4
:100A60007A818B819C810E94A8077B018C019B016C
:100A7000AC01ADA9A983BEA9BA838FA98B832396A4
:100A80009FAD23979C8369817A818B819C810E9491
:100A9000A7072AAD3BAD4CAD5DAD69837A838B83EF
:100AA0009C8369817A818B819C810E94780997015E
:100AB000A80169837A838B839C8369817A818B8186
:100AC0009C810E94A8076C8B7DAB8EAB9FAB898904
:100AD0009A890E945300C92CD82CE72CF62C098542
:100AE0001A852B853C854F8D58A169A17AA10E945A
:100AF0006600698B7D878E879B8B8F8598890E9486
:100B0000530009851A852B853C85A201B1010E94FD
:100B100066007B018C019B01AC01A989A983BD857D
:100B2000BA838E858B839B899C8369817A818B8133
:100B30009C810E94A7072BA13CA14DA15EA16983C6
:100B40007A838B839C8369817A818B819C810E94CB
:100B500078099701A80169837A838B839C836981D3
:100B60007A818B819C810E94A8076F87798B8D8702
:100B70009E8788AD99AD0E945300E72CF62C850125
:100B800025962FAD259724963FAD24974F8D58A1DC
:100B900069A17AA10E94660069877A878B879C8702
:100BA0008FA198A50E94530025962FAD25972496D6
:100BB0003FAD2497A201B1010E9466008B018FA373
:100BC0009B8B9B01AC01A985A983BA85BA838B85D0
:100BD0008B839C859C8369817A818B819C810E9417
:100BE000A7072BA13CA14DA15EA169837A838B83CA
:100BF0009C8369817A818B819C810E94780998010C
:100C00004FA15B8969837A838B839C8369817A8115
:100C10008B819C810E94A8078B018A8799879B0101
:100C2000AC01AF85A983B989BA838D858B839E85F5
:100C30009C8369817A818B819C810E94A7072AAD60
:100C40003BAD4CAD5DAD69837A838B839C836981B9
:100C50007A818B819C810E94780998014A85598507
:100C600069837A838B839C8369817A818B819C8160
:100C70000E94A8078B018A8799879B01AC01AC89E8
:100C8000A983BDA9BA838EA98B839FA99C836981FF
:100C90007A818B819C810E94A7072EAD3FAD219662
:100CA0004FAD219722965FAD229769837A838B831C
:100CB0009C8369817A818B819C810E94780998014B
:100CC0004A85598569837A838B839C8369817A817C
:100CD0008B819C810E94A8075B018E879D872BEAF0
:100CE0003AEA4AEA5EE36983BA828B839C8369812C
:100CF0007A818B819C810E94A80769837A838B8388
:100D00009C83E980FA800B811C8120E030E040E880
:100D10005FE360E070E0CB010E94CA0069877A87D8
:100D20008B879C87A982BA82AE85AB83BD85BC8345
:100D3000E980FA800B811C8120E030E040E85FE32D
:100D400060E070E0CB010E94CA006FA37F876C0156
:100D50002BEA3AEA4AEA5EE3C801B7010E94A70714
:100D600069837A838B839C83E980FA800B811C8161
:100D700020E030E040E85FE360E070E0CB010E94FB
:100D8000CA008B018E879D8720E030E04FE753E457
:100D9000A985A983BA85BA838B858B839C859C831F
:100DA00069817A818B819C810E94780969837A8329
:100DB0008B839C8369817A818B819C810E949208BC
:100DC000F62E20E030E04FE753E4AFA1A983BF85C2
:100DD000BA83CB82DC8269817A818B819C810E947B
:100DE000780969837A838B839C8369817A818B817B
:100DF0009C810E949208E62E20E030E04FE753E409
:100E000009831A838E858B839D859C8369817A8172
:100E10008B819C810E94780969837A838B839C8370
:100E200069817A818B819C810E949208AD81EBA9B6
:100E3000FCA9A0FF02C0E9A9FAA9ED5FFC4FE0827E
:100E4000F1826283BD81BF5FBD832BA93CA92E5176
:100E500031093CAB2BAB89A99AA94E979AAB89ABC8
:100E6000BA3009F049CCA98DBA8D1196BA8FA98FE5
:100E70002F89388D2D5F3F4F388F2F8B1A9709F0B0
:100E80006CCB2AE037ED43E25CE369A57AA58BA53C
:100E90009CA50E94A80760932F0470933004809350
:100EA000310490933204529A3BB13B7F2BB12460C2
:100EB0004FB7F89483E093E0FC010196508168E01D
:100EC0002BB9000000C057FF3BB9550F000000C010
:100ED00000C000C03BB900C06A9591F754E08F3262
:100EE000950751F74FBFCC5BDF4F0FB6F894DEBFCD
:100EF0000FBECDBFDF91CF91FF91EF91BF91AF9129
:100F00009F918F917F916F915F914F913F912F9121
:100F10001F910F91FF90EF90DF90CF90BF90AF9017
:100F20009F908F907F906F905F904F903F902F9009
:100F30000F900FBE0F901F90189582E084BD95E032
:100F400095BD80936E008CE987BD7894FFCF505893
:100F5000BB27AA270E94BF070C9439090E942B09BE
:100F600038F00E94320920F039F49F3F19F426F43A
:100F70000C9428090EF4E095E7FB0C942209E92F64
:100F80000E944A0958F3BA17620773078407950746
:100F900020F079F4A6F50C946C090EF4E0950B2E74
:100FA000BA2FA02D0B01B90190010C01CA01A001BB
:100FB0001124FF27591B99F0593F50F4503E68F116
:100FC0001A16F040A22F232F342F4427585FF3CF57
:100FD000469537952795A795F0405395C9F77EF428
:100FE0001F16BA0B620B730B840BBAF09150A1F071
:100FF000FF0FBB1F661F771F881FC2F70EC0BA0FF7
:10100000621F731F841F48F4879577956795B7957E
:10101000F7959E3F08F0B0CF9395880F08F0992779
:10102000EE0F9795879508950E94FE0808F481E0D9
:1010300008950E942D080C9439090E94320958F035
:101040000E942B0940F029F45F3F29F00C942209FB
:1010500051110C946D090C9428090E944A0968F3F7
:101060009923B1F3552391F3951B550BBB27AA2761
:1010700062177307840738F09F5F5F4F220F331F9B
:10108000441FAA1FA9F335D00E2E3AF0E0E832D063
:1010900091505040E695001CCAF72BD0FE2F29D066
:1010A000660F771F881FBB1F261737074807AB0738
:1010B000B0E809F0BB0B802DBF01FF2793585F4FAD
:1010C0003AF09E3F510578F00C9422090C946D097A
:1010D0005F3FE4F3983ED4F3869577956795B7958F
:1010E000F7959F5FC9F7880F911D9695879597F99A
:1010F0000895E1E0660F771F881FBB1F6217730713
:101100008407BA0720F0621B730B840BBA0BEE1F27
:1011100088F7E09508950E9492086894B1110C94A4
:101120006D0908950E94520988F09F5798F0B92FD1
:101130009927B751B0F0E1F0660F771F881F991F0C
:101140001AF0BA95C9F714C0B13091F00E946C0939
:10115000B1E008950C946C09672F782F8827B85F49
:1011600039F0B93FCCF3869577956795B395D9F764
:101170003EF490958095709561957F4F8F4F9F4F6E
:101180000895E89409C097FB3EF49095809570957A
:1011900061957F4F8F4F9F4F9923A9F0F92F96E9C3
:1011A000BB279395F695879577956795B795F11138
:1011B000F8CFFAF4BB0F11F460FF1BC06F5F7F4FD5
:1011C0008F4F9F4F16C0882311F096E911C07723E7
:1011D00021F09EE8872F762F05C0662371F096E8F0
:1011E000862F70E060E02AF09A95660F771F881FBF
:1011F000DAF7880F9695879597F90895990F000863
:10120000550FAA0BE0E8FEEF16161706E807F907D8
:10121000C0F012161306E407F50798F0621B730B73
:10122000840B950B39F40A2661F0232B242B252BF4
:1012300021F408950A2609F4A140A6958FEF811D97
:10124000811D089597F99F6780E870E060E0089538
:101250009FEF80EC089500240A94161617061806CE
:101260000906089500240A941216130614060506AA
:101270000895092E0394000C11F4882352F0BB0F3B
:1012800040F4BF2B11F460FF04C06F5F7F4F8F4F9E
:101290009F4F089557FD9058440F551F59F05F3FD9
:1012A00071F04795880F97FB991F61F09F3F79F088
:1012B00087950895121613061406551FF2CF46950A
:1012C000F1DF08C0161617061806991FF1CF86958C
:1012D0007105610508940895E894BB276627772770
:1012E000CB0197F908950E94FE0808F48FEF089546
:1012F0000E948B090C9439090E942B0938F00E9436
:10130000320920F0952311F00C9422090C9428093D
:1013100011240C946D090E944A0970F3959FC1F342
:10132000950F50E0551F629FF001729FBB27F00D93
:10133000B11D639FAA27F00DB11DAA1F649F6627E8
:10134000B00DA11D661F829F2227B00DA11D621F37
:10135000739FB00DA11D621F839FA00D611D221FF1
:10136000749F3327A00D611D231F849F600D211DD5
:10137000822F762F6A2F11249F5750409AF0F1F058
:1013800088234AF0EE0FFF1FBB1F661F771F881FC1
:1013900091505040A9F79E3F510580F00C942209CE
:1013A0000C946D095F3FE4F3983ED4F386957795EE
:1013B0006795B795F795E7959F5FC1F7FE2B880F67
:0E13C000911D9695879597F90895F894FFCFA3
:1013CE009700A00089005B005A000F0083000D00FB
:1013DE00C9005F0060003500C200E9000700E100AF
:1013EE008C00240067001E0045008E00080063007C
:1013FE002500F00015000A001700BE00060094003C
:10140E00F7007800EA004B0000001A00C5003E000D
:10141E005E00FC00DB00CB00750023000B002000FB
:10142E003900B10021005800ED009500380057003A
:10143E00AE0014007D008800AB00A8004400AF0091
:10144E004A00A500470086008B0030001B00A60056
:10145E004D0092009E00E70053006F00E5007A00F9
:10146E003C00D3008500E600DC0069005C0029002A
:10147E0037002E00F5002800F40066008F003600BD
:10148E00410019003F00A1000100D80050004900A2
:10149E00D1004C008400BB00D00059001200A900FE
:1014AE00C800C400870082007400BC009F00560074
:1014BE00A40064006D00C600AD00BA000300400039
:1014CE003400D900E200FA007C007B000500CA005F
:1014DE002600930076007E00FF0052005500D400D7
:1014EE00CF00CE003B00E3002F0010003A001100A9
:1014FE00B600BD001C002A00DF00B700AA00D50010
:10150E007700F800980002002C009A00A300460015
:10151E00DD00990065009B00A7002B00AC000900C0
:10152E00810016002700FD00130062006C006E00A3
:10153E004F007100E000E800B200B90070006800D2
:10154E00DA00F6006100E400FB002200F200C100A8
:10155E00EE00D20090000C00BF00B300A200F1001C
:10156E00510033009100EB00F9000E00EF006B000C
:10157E003100C000D6001F00B500C7006A009D00F4
:10158E00B8005400CC00B0007300790032002D007A
:10159E007F0004009600FE008A00EC00CD005D0086
:1015AE00DE00720043001D0018004800F3008D009D
:1015BE008000C3004E004200D7003D009C00B400E6
:00000001FF
